{
  "_format": "hh-sol-artifact-1",
  "contractName": "NftMarket",
  "sourceName": "contracts/NftMarket.sol",
  "abi": [
    {
      "inputs": [],
      "stateMutability": "nonpayable",
      "type": "constructor"
    },
    {
      "stateMutability": "payable",
      "type": "fallback"
    },
    {
      "inputs": [
        {
          "internalType": "address",
          "name": "nftContract",
          "type": "address"
        },
        {
          "internalType": "uint256",
          "name": "tokenId",
          "type": "uint256"
        }
      ],
      "name": "buyOnSaleNFT",
      "outputs": [],
      "stateMutability": "payable",
      "type": "function"
    },
    {
      "inputs": [
        {
          "internalType": "address",
          "name": "nftContract",
          "type": "address"
        },
        {
          "internalType": "uint256",
          "name": "tokenId",
          "type": "uint256"
        },
        {
          "internalType": "uint256",
          "name": "price",
          "type": "uint256"
        }
      ],
      "name": "createOnSaleNFT",
      "outputs": [],
      "stateMutability": "payable",
      "type": "function"
    },
    {
      "inputs": [
        {
          "internalType": "address",
          "name": "",
          "type": "address"
        }
      ],
      "name": "currStockByCollection",
      "outputs": [
        {
          "internalType": "uint256",
          "name": "",
          "type": "uint256"
        }
      ],
      "stateMutability": "view",
      "type": "function"
    },
    {
      "inputs": [
        {
          "internalType": "address",
          "name": "nftContract",
          "type": "address"
        }
      ],
      "name": "fetchOnSaleNFTsByCollection",
      "outputs": [
        {
          "components": [
            {
              "internalType": "uint256",
              "name": "id",
              "type": "uint256"
            },
            {
              "internalType": "address payable",
              "name": "vender",
              "type": "address"
            },
            {
              "internalType": "address payable",
              "name": "owner",
              "type": "address"
            },
            {
              "internalType": "uint256",
              "name": "price",
              "type": "uint256"
            },
            {
              "internalType": "bool",
              "name": "onSale",
              "type": "bool"
            }
          ],
          "internalType": "struct NftMarket.onSaleNFT[]",
          "name": "",
          "type": "tuple[]"
        }
      ],
      "stateMutability": "view",
      "type": "function"
    },
    {
      "inputs": [
        {
          "internalType": "address",
          "name": "nftContract",
          "type": "address"
        }
      ],
      "name": "fetchUserNFTsByCollection",
      "outputs": [
        {
          "components": [
            {
              "internalType": "uint256",
              "name": "id",
              "type": "uint256"
            },
            {
              "internalType": "address payable",
              "name": "vender",
              "type": "address"
            },
            {
              "internalType": "address payable",
              "name": "owner",
              "type": "address"
            },
            {
              "internalType": "uint256",
              "name": "price",
              "type": "uint256"
            },
            {
              "internalType": "bool",
              "name": "onSale",
              "type": "bool"
            }
          ],
          "internalType": "struct NftMarket.onSaleNFT[]",
          "name": "",
          "type": "tuple[]"
        }
      ],
      "stateMutability": "view",
      "type": "function"
    },
    {
      "inputs": [
        {
          "internalType": "address",
          "name": "nftContract",
          "type": "address"
        },
        {
          "internalType": "uint256",
          "name": "tokenId",
          "type": "uint256"
        }
      ],
      "name": "getOnSaleNFT",
      "outputs": [
        {
          "components": [
            {
              "internalType": "uint256",
              "name": "id",
              "type": "uint256"
            },
            {
              "internalType": "address payable",
              "name": "vender",
              "type": "address"
            },
            {
              "internalType": "address payable",
              "name": "owner",
              "type": "address"
            },
            {
              "internalType": "uint256",
              "name": "price",
              "type": "uint256"
            },
            {
              "internalType": "bool",
              "name": "onSale",
              "type": "bool"
            }
          ],
          "internalType": "struct NftMarket.onSaleNFT",
          "name": "",
          "type": "tuple"
        }
      ],
      "stateMutability": "view",
      "type": "function"
    },
    {
      "inputs": [
        {
          "internalType": "address",
          "name": "nftContract",
          "type": "address"
        }
      ],
      "name": "getStockByCollection",
      "outputs": [
        {
          "internalType": "uint256",
          "name": "",
          "type": "uint256"
        }
      ],
      "stateMutability": "view",
      "type": "function"
    },
    {
      "inputs": [
        {
          "internalType": "address",
          "name": "",
          "type": "address"
        }
      ],
      "name": "maxStockByCollection",
      "outputs": [
        {
          "internalType": "uint256",
          "name": "",
          "type": "uint256"
        }
      ],
      "stateMutability": "view",
      "type": "function"
    },
    {
      "inputs": [
        {
          "internalType": "address",
          "name": "",
          "type": "address"
        },
        {
          "internalType": "address",
          "name": "",
          "type": "address"
        },
        {
          "internalType": "uint256",
          "name": "",
          "type": "uint256"
        },
        {
          "internalType": "bytes",
          "name": "",
          "type": "bytes"
        }
      ],
      "name": "onERC721Received",
      "outputs": [
        {
          "internalType": "bytes4",
          "name": "",
          "type": "bytes4"
        }
      ],
      "stateMutability": "pure",
      "type": "function"
    },
    {
      "inputs": [
        {
          "internalType": "address",
          "name": "",
          "type": "address"
        },
        {
          "internalType": "uint256",
          "name": "",
          "type": "uint256"
        }
      ],
      "name": "onSaleNFTs",
      "outputs": [
        {
          "internalType": "uint256",
          "name": "id",
          "type": "uint256"
        },
        {
          "internalType": "address payable",
          "name": "vender",
          "type": "address"
        },
        {
          "internalType": "address payable",
          "name": "owner",
          "type": "address"
        },
        {
          "internalType": "uint256",
          "name": "price",
          "type": "uint256"
        },
        {
          "internalType": "bool",
          "name": "onSale",
          "type": "bool"
        }
      ],
      "stateMutability": "view",
      "type": "function"
    },
    {
      "stateMutability": "payable",
      "type": "receive"
    }
  ],
  "bytecode": "0x608060405234801561001057600080fd5b50600160008190555033600160006101000a81548173ffffffffffffffffffffffffffffffffffffffff021916908373ffffffffffffffffffffffffffffffffffffffff160217905550611b13806100696000396000f3fe6080604052600436106100955760003560e01c8063836d232511610059578063836d2325146101cf578063a14c7c331461020c578063a60cbe6e1461024d578063c0f19e3214610269578063ce2a7999146102855761009c565b8063150b7a021461009e5780633e24fb5a146100db578063403a108b14610118578063736860dd146101555780637c394cd8146101925761009c565b3661009c57005b005b3480156100aa57600080fd5b506100c560048036038101906100c091906113a2565b6102c2565b6040516100d29190611465565b60405180910390f35b3480156100e757600080fd5b5061010260048036038101906100fd9190611480565b6102d7565b60405161010f919061160f565b60405180910390f35b34801561012457600080fd5b5061013f600480360381019061013a9190611631565b610680565b60405161014c91906116d9565b60405180910390f35b34801561016157600080fd5b5061017c60048036038101906101779190611480565b6107c6565b6040516101899190611703565b60405180910390f35b34801561019e57600080fd5b506101b960048036038101906101b49190611480565b6107de565b6040516101c69190611703565b60405180910390f35b3480156101db57600080fd5b506101f660048036038101906101f19190611480565b6107f6565b604051610203919061160f565b60405180910390f35b34801561021857600080fd5b50610233600480360381019061022e9190611631565b610b78565b60405161024495949392919061173c565b60405180910390f35b6102676004803603810190610262919061178f565b610c08565b005b610283600480360381019061027e9190611631565b610f2f565b005b34801561029157600080fd5b506102ac60048036038101906102a79190611480565b6111f9565b6040516102b99190611703565b60405180910390f35b600063150b7a0260e01b905095945050505050565b60606000600360008473ffffffffffffffffffffffffffffffffffffffff1673ffffffffffffffffffffffffffffffffffffffff1681526020019081526020016000205490506000805b8281116103f2573373ffffffffffffffffffffffffffffffffffffffff16600460008773ffffffffffffffffffffffffffffffffffffffff1673ffffffffffffffffffffffffffffffffffffffff168152602001908152602001600020600083815260200190815260200160002060020160009054906101000a900473ffffffffffffffffffffffffffffffffffffffff1673ffffffffffffffffffffffffffffffffffffffff1614156103df576001826103dc9190611811565b91505b80806103ea90611867565b915050610321565b5060008167ffffffffffffffff81111561040f5761040e6118b0565b5b60405190808252806020026020018201604052801561044857816020015b610435611242565b81526020019060019003908161042d5790505b5090506000805b848111610673573373ffffffffffffffffffffffffffffffffffffffff16600460008973ffffffffffffffffffffffffffffffffffffffff1673ffffffffffffffffffffffffffffffffffffffff168152602001908152602001600020600083815260200190815260200160002060020160009054906101000a900473ffffffffffffffffffffffffffffffffffffffff1673ffffffffffffffffffffffffffffffffffffffff16141561066057600460008873ffffffffffffffffffffffffffffffffffffffff1673ffffffffffffffffffffffffffffffffffffffff16815260200190815260200160002060008281526020019081526020016000206040518060a0016040529081600082015481526020016001820160009054906101000a900473ffffffffffffffffffffffffffffffffffffffff1673ffffffffffffffffffffffffffffffffffffffff1673ffffffffffffffffffffffffffffffffffffffff1681526020016002820160009054906101000a900473ffffffffffffffffffffffffffffffffffffffff1673ffffffffffffffffffffffffffffffffffffffff1673ffffffffffffffffffffffffffffffffffffffff168152602001600382015481526020016004820160009054906101000a900460ff161515151581525050838381518110610646576106456118df565b5b6020026020010181905250818061065c90611867565b9250505b808061066b90611867565b91505061044f565b5081945050505050919050565b610688611242565b600460008473ffffffffffffffffffffffffffffffffffffffff1673ffffffffffffffffffffffffffffffffffffffff16815260200190815260200160002060008381526020019081526020016000206040518060a0016040529081600082015481526020016001820160009054906101000a900473ffffffffffffffffffffffffffffffffffffffff1673ffffffffffffffffffffffffffffffffffffffff1673ffffffffffffffffffffffffffffffffffffffff1681526020016002820160009054906101000a900473ffffffffffffffffffffffffffffffffffffffff1673ffffffffffffffffffffffffffffffffffffffff1673ffffffffffffffffffffffffffffffffffffffff168152602001600382015481526020016004820160009054906101000a900460ff161515151581525050905092915050565b60036020528060005260406000206000915090505481565b60026020528060005260406000206000915090505481565b60606000600360008473ffffffffffffffffffffffffffffffffffffffff1673ffffffffffffffffffffffffffffffffffffffff1681526020019081526020016000205490506000600260008573ffffffffffffffffffffffffffffffffffffffff1673ffffffffffffffffffffffffffffffffffffffff1681526020019081526020016000205467ffffffffffffffff811115610897576108966118b0565b5b6040519080825280602002602001820160405280156108d057816020015b6108bd611242565b8152602001906001900390816108b55790505b5090506000805b838111610b6c5760011515600460008873ffffffffffffffffffffffffffffffffffffffff1673ffffffffffffffffffffffffffffffffffffffff168152602001908152602001600020600083815260200190815260200160002060040160009054906101000a900460ff1615151480156109f15750600073ffffffffffffffffffffffffffffffffffffffff16600460008873ffffffffffffffffffffffffffffffffffffffff1673ffffffffffffffffffffffffffffffffffffffff168152602001908152602001600020600083815260200190815260200160002060020160009054906101000a900473ffffffffffffffffffffffffffffffffffffffff1673ffffffffffffffffffffffffffffffffffffffff16145b15610b5957600460008773ffffffffffffffffffffffffffffffffffffffff1673ffffffffffffffffffffffffffffffffffffffff16815260200190815260200160002060008281526020019081526020016000206040518060a0016040529081600082015481526020016001820160009054906101000a900473ffffffffffffffffffffffffffffffffffffffff1673ffffffffffffffffffffffffffffffffffffffff1673ffffffffffffffffffffffffffffffffffffffff1681526020016002820160009054906101000a900473ffffffffffffffffffffffffffffffffffffffff1673ffffffffffffffffffffffffffffffffffffffff1673ffffffffffffffffffffffffffffffffffffffff168152602001600382015481526020016004820160009054906101000a900460ff161515151581525050838381518110610b3f57610b3e6118df565b5b60200260200101819052508180610b5590611867565b9250505b8080610b6490611867565b9150506108d7565b50819350505050919050565b6004602052816000526040600020602052806000526040600020600091509150508060000154908060010160009054906101000a900473ffffffffffffffffffffffffffffffffffffffff16908060020160009054906101000a900473ffffffffffffffffffffffffffffffffffffffff16908060030154908060040160009054906101000a900460ff16905085565b60026000541415610c4e576040517f08c379a0000000000000000000000000000000000000000000000000000000008152600401610c459061196b565b60405180910390fd5b600260008190555060008111610c99576040517f08c379a0000000000000000000000000000000000000000000000000000000008152600401610c90906119d7565b60405180910390fd5b6040518060a001604052808381526020013373ffffffffffffffffffffffffffffffffffffffff168152602001600073ffffffffffffffffffffffffffffffffffffffff16815260200182815260200160011515815250600460008573ffffffffffffffffffffffffffffffffffffffff1673ffffffffffffffffffffffffffffffffffffffff16815260200190815260200160002060008481526020019081526020016000206000820151816000015560208201518160010160006101000a81548173ffffffffffffffffffffffffffffffffffffffff021916908373ffffffffffffffffffffffffffffffffffffffff16021790555060408201518160020160006101000a81548173ffffffffffffffffffffffffffffffffffffffff021916908373ffffffffffffffffffffffffffffffffffffffff1602179055506060820151816003015560808201518160040160006101000a81548160ff0219169083151502179055509050506001600360008573ffffffffffffffffffffffffffffffffffffffff1673ffffffffffffffffffffffffffffffffffffffff1681526020019081526020016000206000828254610e559190611811565b925050819055506001600260008573ffffffffffffffffffffffffffffffffffffffff1673ffffffffffffffffffffffffffffffffffffffff1681526020019081526020016000206000828254610eac9190611811565b925050819055508273ffffffffffffffffffffffffffffffffffffffff166342842e0e3330856040518463ffffffff1660e01b8152600401610ef093929190611a06565b600060405180830381600087803b158015610f0a57600080fd5b505af1158015610f1e573d6000803e3d6000fd5b505050506001600081905550505050565b60026000541415610f75576040517f08c379a0000000000000000000000000000000000000000000000000000000008152600401610f6c9061196b565b60405180910390fd5b60026000819055506000600460008473ffffffffffffffffffffffffffffffffffffffff1673ffffffffffffffffffffffffffffffffffffffff1681526020019081526020016000206000838152602001908152602001600020905080600301543414611017576040517f08c379a000000000000000000000000000000000000000000000000000000000815260040161100e90611a89565b60405180910390fd5b8060010160009054906101000a900473ffffffffffffffffffffffffffffffffffffffff1673ffffffffffffffffffffffffffffffffffffffff166108fc349081150290604051600060405180830381858888f19350505050158015611081573d6000803e3d6000fd5b5060008160010160006101000a81548173ffffffffffffffffffffffffffffffffffffffff021916908373ffffffffffffffffffffffffffffffffffffffff160217905550338160020160006101000a81548173ffffffffffffffffffffffffffffffffffffffff021916908373ffffffffffffffffffffffffffffffffffffffff16021790555060008160040160006101000a81548160ff0219169083151502179055506001600260008573ffffffffffffffffffffffffffffffffffffffff1673ffffffffffffffffffffffffffffffffffffffff16815260200190815260200160002060008282546111769190611aa9565b925050819055508273ffffffffffffffffffffffffffffffffffffffff166342842e0e3033856040518463ffffffff1660e01b81526004016111ba93929190611a06565b600060405180830381600087803b1580156111d457600080fd5b505af11580156111e8573d6000803e3d6000fd5b505050505060016000819055505050565b6000600260008373ffffffffffffffffffffffffffffffffffffffff1673ffffffffffffffffffffffffffffffffffffffff168152602001908152602001600020549050919050565b6040518060a0016040528060008152602001600073ffffffffffffffffffffffffffffffffffffffff168152602001600073ffffffffffffffffffffffffffffffffffffffff168152602001600081526020016000151581525090565b600080fd5b600080fd5b600073ffffffffffffffffffffffffffffffffffffffff82169050919050565b60006112d4826112a9565b9050919050565b6112e4816112c9565b81146112ef57600080fd5b50565b600081359050611301816112db565b92915050565b6000819050919050565b61131a81611307565b811461132557600080fd5b50565b60008135905061133781611311565b92915050565b600080fd5b600080fd5b600080fd5b60008083601f8401126113625761136161133d565b5b8235905067ffffffffffffffff81111561137f5761137e611342565b5b60208301915083600182028301111561139b5761139a611347565b5b9250929050565b6000806000806000608086880312156113be576113bd61129f565b5b60006113cc888289016112f2565b95505060206113dd888289016112f2565b94505060406113ee88828901611328565b935050606086013567ffffffffffffffff81111561140f5761140e6112a4565b5b61141b8882890161134c565b92509250509295509295909350565b60007fffffffff0000000000000000000000000000000000000000000000000000000082169050919050565b61145f8161142a565b82525050565b600060208201905061147a6000830184611456565b92915050565b6000602082840312156114965761149561129f565b5b60006114a4848285016112f2565b91505092915050565b600081519050919050565b600082825260208201905092915050565b6000819050602082019050919050565b6114e281611307565b82525050565b60006114f3826112a9565b9050919050565b611503816114e8565b82525050565b60008115159050919050565b61151e81611509565b82525050565b60a08201600082015161153a60008501826114d9565b50602082015161154d60208501826114fa565b50604082015161156060408501826114fa565b50606082015161157360608501826114d9565b5060808201516115866080850182611515565b50505050565b60006115988383611524565b60a08301905092915050565b6000602082019050919050565b60006115bc826114ad565b6115c681856114b8565b93506115d1836114c9565b8060005b838110156116025781516115e9888261158c565b97506115f4836115a4565b9250506001810190506115d5565b5085935050505092915050565b6000602082019050818103600083015261162981846115b1565b905092915050565b600080604083850312156116485761164761129f565b5b6000611656858286016112f2565b925050602061166785828601611328565b9150509250929050565b60a08201600082015161168760008501826114d9565b50602082015161169a60208501826114fa565b5060408201516116ad60408501826114fa565b5060608201516116c060608501826114d9565b5060808201516116d36080850182611515565b50505050565b600060a0820190506116ee6000830184611671565b92915050565b6116fd81611307565b82525050565b600060208201905061171860008301846116f4565b92915050565b611727816114e8565b82525050565b61173681611509565b82525050565b600060a08201905061175160008301886116f4565b61175e602083018761171e565b61176b604083018661171e565b61177860608301856116f4565b611785608083018461172d565b9695505050505050565b6000806000606084860312156117a8576117a761129f565b5b60006117b6868287016112f2565b93505060206117c786828701611328565b92505060406117d886828701611328565b9150509250925092565b7f4e487b7100000000000000000000000000000000000000000000000000000000600052601160045260246000fd5b600061181c82611307565b915061182783611307565b9250827fffffffffffffffffffffffffffffffffffffffffffffffffffffffffffffffff0382111561185c5761185b6117e2565b5b828201905092915050565b600061187282611307565b91507fffffffffffffffffffffffffffffffffffffffffffffffffffffffffffffffff8214156118a5576118a46117e2565b5b600182019050919050565b7f4e487b7100000000000000000000000000000000000000000000000000000000600052604160045260246000fd5b7f4e487b7100000000000000000000000000000000000000000000000000000000600052603260045260246000fd5b600082825260208201905092915050565b7f5265656e7472616e637947756172643a207265656e7472616e742063616c6c00600082015250565b6000611955601f8361190e565b91506119608261191f565b602082019050919050565b6000602082019050818103600083015261198481611948565b9050919050565b7f5072696365206e6f742073657400000000000000000000000000000000000000600082015250565b60006119c1600d8361190e565b91506119cc8261198b565b602082019050919050565b600060208201905081810360008301526119f0816119b4565b9050919050565b611a00816112c9565b82525050565b6000606082019050611a1b60008301866119f7565b611a2860208301856119f7565b611a3560408301846116f4565b949350505050565b7f76616c7565206d75737420657175616c2073656c6c2070726963650000000000600082015250565b6000611a73601b8361190e565b9150611a7e82611a3d565b602082019050919050565b60006020820190508181036000830152611aa281611a66565b9050919050565b6000611ab482611307565b9150611abf83611307565b925082821015611ad257611ad16117e2565b5b82820390509291505056fea26469706673582212204ec52db032c4d111f66faa097a2a2d8074e526f9ec1aaf91f0579832daeb814c64736f6c63430008090033",
  "linkReferences": {},
  "deployedLinkReferences": {}
}