{
  "_format": "hh-sol-artifact-1",
  "contractName": "NFT_SVG",
  "sourceName": "contracts/NFT_SVG.sol",
  "abi": [
    {
      "inputs": [
        {
          "internalType": "address",
          "name": "_nftMarketContract",
          "type": "address"
        }
      ],
      "stateMutability": "nonpayable",
      "type": "constructor"
    },
    {
      "anonymous": false,
      "inputs": [
        {
          "indexed": true,
          "internalType": "address",
          "name": "owner",
          "type": "address"
        },
        {
          "indexed": true,
          "internalType": "address",
          "name": "approved",
          "type": "address"
        },
        {
          "indexed": true,
          "internalType": "uint256",
          "name": "tokenId",
          "type": "uint256"
        }
      ],
      "name": "Approval",
      "type": "event"
    },
    {
      "anonymous": false,
      "inputs": [
        {
          "indexed": true,
          "internalType": "address",
          "name": "owner",
          "type": "address"
        },
        {
          "indexed": true,
          "internalType": "address",
          "name": "operator",
          "type": "address"
        },
        {
          "indexed": false,
          "internalType": "bool",
          "name": "approved",
          "type": "bool"
        }
      ],
      "name": "ApprovalForAll",
      "type": "event"
    },
    {
      "anonymous": false,
      "inputs": [
        {
          "indexed": false,
          "internalType": "address",
          "name": "minter",
          "type": "address"
        },
        {
          "indexed": false,
          "internalType": "uint256",
          "name": "tokenId",
          "type": "uint256"
        }
      ],
      "name": "NftMinted",
      "type": "event"
    },
    {
      "anonymous": false,
      "inputs": [
        {
          "indexed": true,
          "internalType": "address",
          "name": "from",
          "type": "address"
        },
        {
          "indexed": true,
          "internalType": "address",
          "name": "to",
          "type": "address"
        },
        {
          "indexed": true,
          "internalType": "uint256",
          "name": "tokenId",
          "type": "uint256"
        }
      ],
      "name": "Transfer",
      "type": "event"
    },
    {
      "inputs": [
        {
          "internalType": "address",
          "name": "to",
          "type": "address"
        },
        {
          "internalType": "uint256",
          "name": "tokenId",
          "type": "uint256"
        }
      ],
      "name": "approve",
      "outputs": [],
      "stateMutability": "nonpayable",
      "type": "function"
    },
    {
      "inputs": [
        {
          "internalType": "address",
          "name": "owner",
          "type": "address"
        }
      ],
      "name": "balanceOf",
      "outputs": [
        {
          "internalType": "uint256",
          "name": "",
          "type": "uint256"
        }
      ],
      "stateMutability": "view",
      "type": "function"
    },
    {
      "inputs": [
        {
          "internalType": "uint256",
          "name": "tokenId",
          "type": "uint256"
        }
      ],
      "name": "getApproved",
      "outputs": [
        {
          "internalType": "address",
          "name": "",
          "type": "address"
        }
      ],
      "stateMutability": "view",
      "type": "function"
    },
    {
      "inputs": [],
      "name": "getTokenId",
      "outputs": [
        {
          "internalType": "uint256",
          "name": "",
          "type": "uint256"
        }
      ],
      "stateMutability": "view",
      "type": "function"
    },
    {
      "inputs": [
        {
          "internalType": "address",
          "name": "owner",
          "type": "address"
        },
        {
          "internalType": "address",
          "name": "operator",
          "type": "address"
        }
      ],
      "name": "isApprovedForAll",
      "outputs": [
        {
          "internalType": "bool",
          "name": "",
          "type": "bool"
        }
      ],
      "stateMutability": "view",
      "type": "function"
    },
    {
      "inputs": [],
      "name": "mintFTR",
      "outputs": [],
      "stateMutability": "nonpayable",
      "type": "function"
    },
    {
      "inputs": [],
      "name": "name",
      "outputs": [
        {
          "internalType": "string",
          "name": "",
          "type": "string"
        }
      ],
      "stateMutability": "view",
      "type": "function"
    },
    {
      "inputs": [
        {
          "internalType": "uint256",
          "name": "tokenId",
          "type": "uint256"
        }
      ],
      "name": "ownerOf",
      "outputs": [
        {
          "internalType": "address",
          "name": "",
          "type": "address"
        }
      ],
      "stateMutability": "view",
      "type": "function"
    },
    {
      "inputs": [
        {
          "internalType": "uint256",
          "name": "tokenId",
          "type": "uint256"
        }
      ],
      "name": "pickRandomCityWord",
      "outputs": [
        {
          "internalType": "string",
          "name": "",
          "type": "string"
        }
      ],
      "stateMutability": "view",
      "type": "function"
    },
    {
      "inputs": [
        {
          "internalType": "uint256",
          "name": "tokenId",
          "type": "uint256"
        }
      ],
      "name": "pickRandomJobWord",
      "outputs": [
        {
          "internalType": "string",
          "name": "",
          "type": "string"
        }
      ],
      "stateMutability": "view",
      "type": "function"
    },
    {
      "inputs": [
        {
          "internalType": "uint256",
          "name": "tokenId",
          "type": "uint256"
        }
      ],
      "name": "pickRandomSocialWord",
      "outputs": [
        {
          "internalType": "string",
          "name": "",
          "type": "string"
        }
      ],
      "stateMutability": "view",
      "type": "function"
    },
    {
      "inputs": [
        {
          "internalType": "address",
          "name": "from",
          "type": "address"
        },
        {
          "internalType": "address",
          "name": "to",
          "type": "address"
        },
        {
          "internalType": "uint256",
          "name": "tokenId",
          "type": "uint256"
        }
      ],
      "name": "safeTransferFrom",
      "outputs": [],
      "stateMutability": "nonpayable",
      "type": "function"
    },
    {
      "inputs": [
        {
          "internalType": "address",
          "name": "from",
          "type": "address"
        },
        {
          "internalType": "address",
          "name": "to",
          "type": "address"
        },
        {
          "internalType": "uint256",
          "name": "tokenId",
          "type": "uint256"
        },
        {
          "internalType": "bytes",
          "name": "data",
          "type": "bytes"
        }
      ],
      "name": "safeTransferFrom",
      "outputs": [],
      "stateMutability": "nonpayable",
      "type": "function"
    },
    {
      "inputs": [
        {
          "internalType": "address",
          "name": "operator",
          "type": "address"
        },
        {
          "internalType": "bool",
          "name": "approved",
          "type": "bool"
        }
      ],
      "name": "setApprovalForAll",
      "outputs": [],
      "stateMutability": "nonpayable",
      "type": "function"
    },
    {
      "inputs": [
        {
          "internalType": "bytes4",
          "name": "interfaceId",
          "type": "bytes4"
        }
      ],
      "name": "supportsInterface",
      "outputs": [
        {
          "internalType": "bool",
          "name": "",
          "type": "bool"
        }
      ],
      "stateMutability": "view",
      "type": "function"
    },
    {
      "inputs": [],
      "name": "symbol",
      "outputs": [
        {
          "internalType": "string",
          "name": "",
          "type": "string"
        }
      ],
      "stateMutability": "view",
      "type": "function"
    },
    {
      "inputs": [
        {
          "internalType": "uint256",
          "name": "tokenId",
          "type": "uint256"
        }
      ],
      "name": "tokenURI",
      "outputs": [
        {
          "internalType": "string",
          "name": "",
          "type": "string"
        }
      ],
      "stateMutability": "view",
      "type": "function"
    },
    {
      "inputs": [
        {
          "internalType": "address",
          "name": "from",
          "type": "address"
        },
        {
          "internalType": "address",
          "name": "to",
          "type": "address"
        },
        {
          "internalType": "uint256",
          "name": "tokenId",
          "type": "uint256"
        }
      ],
      "name": "transferFrom",
      "outputs": [],
      "stateMutability": "nonpayable",
      "type": "function"
    }
  ],
  "bytecode": "0x608060405260405180610160016040528061012f815260200162003d5261012f913960099080519060200190620000389291906200067f565b506040518060e001604052806040518060400160405280600c81526020017f4c6f7320416e67656c657320000000000000000000000000000000000000000081525081526020016040518060400160405280600c81526020017f4d657869636f204369747920000000000000000000000000000000000000000081525081526020016040518060400160405280600981526020017f4d6564656c6c696e20000000000000000000000000000000000000000000000081525081526020016040518060400160405280600a81526020017f42617263656c6f6e61200000000000000000000000000000000000000000000081525081526020016040518060400160405280600681526020017f4d69616d6920000000000000000000000000000000000000000000000000000081525081526020016040518060400160405280600d81526020017f4275656e6f73204169726573200000000000000000000000000000000000000081525081526020016040518060400160405280600781526020017f4c6f6e646f6e2000000000000000000000000000000000000000000000000000815250815250600a906007620001f192919062000710565b506040518060e001604052806040518060400160405280600b81526020017f467265656c616e6365722000000000000000000000000000000000000000000081525081526020016040518060400160405280600781526020017f44414f697374200000000000000000000000000000000000000000000000000081525081526020016040518060400160405280600a81526020017f416e61726368697374200000000000000000000000000000000000000000000081525081526020016040518060400160405280600f81526020017f436f72706f72617465205375697420000000000000000000000000000000000081525081526020016040518060400160405280600881526020017f466f756e6465722000000000000000000000000000000000000000000000000081525081526020016040518060400160405280600d81526020017f496e74656c6c65637475616c200000000000000000000000000000000000000081525081526020016040518060400160405280600881526020017f44726f706f757420000000000000000000000000000000000000000000000000815250815250600b906007620003aa92919062000710565b506040518060e001604052806040518060400160405280600b81526020017f5075626c696320476f6f6400000000000000000000000000000000000000000081525081526020016040518060400160405280601081526020017f5072697661746520496e7465726573740000000000000000000000000000000081525081526020016040518060400160405280601681526020017f436f6c6c65637469766520536f7665726569676e74790000000000000000000081525081526020016040518060400160405280601881526020017f4e656f6c69626572616c20496e646976696475616c69736d000000000000000081525081526020016040518060400160405280601281526020017f45636f6c6f676963616c20456e74726f7079000000000000000000000000000081525081526020016040518060400160405280601281526020017f4f7277656c6c69616e20447973746f706961000000000000000000000000000081525081526020016040518060400160405280601081526020017f43727970746f2044656d6f637261637900000000000000000000000000000000815250815250600c9060076200056392919062000710565b503480156200057157600080fd5b5060405162003e8138038062003e8183398181016040528101906200059791906200086e565b6040518060400160405280600681526020017f46757475726f00000000000000000000000000000000000000000000000000008152506040518060400160405280600381526020017f465452000000000000000000000000000000000000000000000000000000000081525081600090805190602001906200061b9291906200067f565b508060019080519060200190620006349291906200067f565b50505080600860006101000a81548173ffffffffffffffffffffffffffffffffffffffff021916908373ffffffffffffffffffffffffffffffffffffffff1602179055505062000905565b8280546200068d90620008cf565b90600052602060002090601f016020900481019282620006b15760008555620006fd565b82601f10620006cc57805160ff1916838001178555620006fd565b82800160010185558215620006fd579182015b82811115620006fc578251825591602001919060010190620006df565b5b5090506200070c919062000777565b5090565b82805482825590600052602060002090810192821562000764579160200282015b8281111562000763578251829080519060200190620007529291906200067f565b509160200191906001019062000731565b5b50905062000773919062000796565b5090565b5b808211156200079257600081600090555060010162000778565b5090565b5b80821115620007ba5760008181620007b09190620007be565b5060010162000797565b5090565b508054620007cc90620008cf565b6000825580601f10620007e0575062000801565b601f01602090049060005260206000209081019062000800919062000777565b5b50565b600080fd5b600073ffffffffffffffffffffffffffffffffffffffff82169050919050565b6000620008368262000809565b9050919050565b620008488162000829565b81146200085457600080fd5b50565b60008151905062000868816200083d565b92915050565b60006020828403121562000887576200088662000804565b5b6000620008978482850162000857565b91505092915050565b7f4e487b7100000000000000000000000000000000000000000000000000000000600052602260045260246000fd5b60006002820490506001821680620008e857607f821691505b60208210811415620008ff57620008fe620008a0565b5b50919050565b61343d80620009156000396000f3fe608060405234801561001057600080fd5b50600436106101165760003560e01c80636352211e116100a257806395d89b411161007157806395d89b4114610305578063a22cb46514610323578063b88d4fde1461033f578063c87b56dd1461035b578063e985e9c51461038b57610116565b80636352211e1461024557806370a082311461027557806387d52a9a146102a557806389ec776a146102d557610116565b8063095ea7b3116100e9578063095ea7b3146101b757806323b872dd146101d357806342842e0e146101ef57806345426dde1461020b5780634d9715571461023b57610116565b8063010a38f51461011b57806301ffc9a71461013957806306fdde0314610169578063081812fc14610187575b600080fd5b6101236103bb565b6040516101309190611f4a565b60405180910390f35b610153600480360381019061014e9190611fd1565b6103cc565b6040516101609190612019565b60405180910390f35b6101716104ae565b60405161017e91906120cd565b60405180910390f35b6101a1600480360381019061019c919061211b565b610540565b6040516101ae9190612189565b60405180910390f35b6101d160048036038101906101cc91906121d0565b610586565b005b6101ed60048036038101906101e89190612210565b61069e565b005b61020960048036038101906102049190612210565b6106fe565b005b6102256004803603810190610220919061211b565b61071e565b60405161023291906120cd565b60405180910390f35b610243610816565b005b61025f600480360381019061025a919061211b565b610982565b60405161026c9190612189565b60405180910390f35b61028f600480360381019061028a9190612263565b610a34565b60405161029c9190611f4a565b60405180910390f35b6102bf60048036038101906102ba919061211b565b610aec565b6040516102cc91906120cd565b60405180910390f35b6102ef60048036038101906102ea919061211b565b610be4565b6040516102fc91906120cd565b60405180910390f35b61030d610cdc565b60405161031a91906120cd565b60405180910390f35b61033d600480360381019061033891906122bc565b610d6e565b005b61035960048036038101906103549190612431565b610d84565b005b6103756004803603810190610370919061211b565b610de6565b60405161038291906120cd565b60405180910390f35b6103a560048036038101906103a091906124b4565b610ef9565b6040516103b29190612019565b60405180910390f35b60006103c76007610f8d565b905090565b60007f80ac58cd000000000000000000000000000000000000000000000000000000007bffffffffffffffffffffffffffffffffffffffffffffffffffffffff1916827bffffffffffffffffffffffffffffffffffffffffffffffffffffffff1916148061049757507f5b5e139f000000000000000000000000000000000000000000000000000000007bffffffffffffffffffffffffffffffffffffffffffffffffffffffff1916827bffffffffffffffffffffffffffffffffffffffffffffffffffffffff1916145b806104a757506104a682610f9b565b5b9050919050565b6060600080546104bd90612523565b80601f01602080910402602001604051908101604052809291908181526020018280546104e990612523565b80156105365780601f1061050b57610100808354040283529160200191610536565b820191906000526020600020905b81548152906001019060200180831161051957829003601f168201915b5050505050905090565b600061054b82611005565b6004600083815260200190815260200160002060009054906101000a900473ffffffffffffffffffffffffffffffffffffffff169050919050565b600061059182610982565b90508073ffffffffffffffffffffffffffffffffffffffff168373ffffffffffffffffffffffffffffffffffffffff161415610602576040517f08c379a00000000000000000000000000000000000000000000000000000000081526004016105f9906125c7565b60405180910390fd5b8073ffffffffffffffffffffffffffffffffffffffff16610621611050565b73ffffffffffffffffffffffffffffffffffffffff161480610650575061064f8161064a611050565b610ef9565b5b61068f576040517f08c379a000000000000000000000000000000000000000000000000000000000815260040161068690612659565b60405180910390fd5b6106998383611058565b505050565b6106af6106a9611050565b82611111565b6106ee576040517f08c379a00000000000000000000000000000000000000000000000000000000081526004016106e5906126eb565b60405180910390fd5b6106f98383836111a6565b505050565b61071983838360405180602001604052806000815250610d84565b505050565b6060600061075261072e8461140d565b60405160200161073e9190612793565b60405160208183030381529060405261156e565b9050600a805490508161076591906127e4565b9050600a818154811061077b5761077a612815565b5b90600052602060002001805461079090612523565b80601f01602080910402602001604051908101604052809291908181526020018280546107bc90612523565b80156108095780601f106107de57610100808354040283529160200191610809565b820191906000526020600020905b8154815290600101906020018083116107ec57829003601f168201915b5050505050915050919050565b61082060076115a1565b600061082c6007610f8d565b905060006108398261071e565b9050600061084683610aec565b9050600061085384610be4565b9050600083838360405160200161086c93929190612844565b60405160208183030381529060405290506000600982604051602001610893929190612955565b604051602081830303815290604052905060006108d8836108b3846115b7565b6040516020016108c4929190612ada565b6040516020818303038152906040526115b7565b90506000816040516020016108ed9190612b6b565b60405160208183030381529060405290507ff2b290a76feb54be358b555507421d765609171aefa0646f109a653228ff81b8338960405161092f929190612b8d565b60405180910390a1610941338961174f565b61094b888261176d565b610978600860009054906101000a900473ffffffffffffffffffffffffffffffffffffffff166001610d6e565b5050505050505050565b6000806002600084815260200190815260200160002060009054906101000a900473ffffffffffffffffffffffffffffffffffffffff169050600073ffffffffffffffffffffffffffffffffffffffff168173ffffffffffffffffffffffffffffffffffffffff161415610a2b576040517f08c379a0000000000000000000000000000000000000000000000000000000008152600401610a2290612c02565b60405180910390fd5b80915050919050565b60008073ffffffffffffffffffffffffffffffffffffffff168273ffffffffffffffffffffffffffffffffffffffff161415610aa5576040517f08c379a0000000000000000000000000000000000000000000000000000000008152600401610a9c90612c94565b60405180910390fd5b600360008373ffffffffffffffffffffffffffffffffffffffff1673ffffffffffffffffffffffffffffffffffffffff168152602001908152602001600020549050919050565b60606000610b20610afc8461140d565b604051602001610b0c9190612d00565b60405160208183030381529060405261156e565b9050600b8054905081610b3391906127e4565b9050600b8181548110610b4957610b48612815565b5b906000526020600020018054610b5e90612523565b80601f0160208091040260200160405190810160405280929190818152602001828054610b8a90612523565b8015610bd75780601f10610bac57610100808354040283529160200191610bd7565b820191906000526020600020905b815481529060010190602001808311610bba57829003601f168201915b5050505050915050919050565b60606000610c18610bf48461140d565b604051602001610c049190612d6e565b60405160208183030381529060405261156e565b9050600c8054905081610c2b91906127e4565b9050600c8181548110610c4157610c40612815565b5b906000526020600020018054610c5690612523565b80601f0160208091040260200160405190810160405280929190818152602001828054610c8290612523565b8015610ccf5780601f10610ca457610100808354040283529160200191610ccf565b820191906000526020600020905b815481529060010190602001808311610cb257829003601f168201915b5050505050915050919050565b606060018054610ceb90612523565b80601f0160208091040260200160405190810160405280929190818152602001828054610d1790612523565b8015610d645780601f10610d3957610100808354040283529160200191610d64565b820191906000526020600020905b815481529060010190602001808311610d4757829003601f168201915b5050505050905090565b610d80610d79611050565b83836117e1565b5050565b610d95610d8f611050565b83611111565b610dd4576040517f08c379a0000000000000000000000000000000000000000000000000000000008152600401610dcb906126eb565b60405180910390fd5b610de08484848461194e565b50505050565b6060610df182611005565b6000600660008481526020019081526020016000208054610e1190612523565b80601f0160208091040260200160405190810160405280929190818152602001828054610e3d90612523565b8015610e8a5780601f10610e5f57610100808354040283529160200191610e8a565b820191906000526020600020905b815481529060010190602001808311610e6d57829003601f168201915b505050505090506000610e9b6119aa565b9050600081511415610eb1578192505050610ef4565b600082511115610ee6578082604051602001610ece929190612d90565b60405160208183030381529060405292505050610ef4565b610eef846119c1565b925050505b919050565b6000600560008473ffffffffffffffffffffffffffffffffffffffff1673ffffffffffffffffffffffffffffffffffffffff16815260200190815260200160002060008373ffffffffffffffffffffffffffffffffffffffff1673ffffffffffffffffffffffffffffffffffffffff16815260200190815260200160002060009054906101000a900460ff16905092915050565b600081600001549050919050565b60007f01ffc9a7000000000000000000000000000000000000000000000000000000007bffffffffffffffffffffffffffffffffffffffffffffffffffffffff1916827bffffffffffffffffffffffffffffffffffffffffffffffffffffffff1916149050919050565b61100e81611a29565b61104d576040517f08c379a000000000000000000000000000000000000000000000000000000000815260040161104490612c02565b60405180910390fd5b50565b600033905090565b816004600083815260200190815260200160002060006101000a81548173ffffffffffffffffffffffffffffffffffffffff021916908373ffffffffffffffffffffffffffffffffffffffff160217905550808273ffffffffffffffffffffffffffffffffffffffff166110cb83610982565b73ffffffffffffffffffffffffffffffffffffffff167f8c5be1e5ebec7d5bd14f71427d1e84f3dd0314c0f7b2291e5b200ac8c7c3b92560405160405180910390a45050565b60008061111d83610982565b90508073ffffffffffffffffffffffffffffffffffffffff168473ffffffffffffffffffffffffffffffffffffffff16148061115f575061115e8185610ef9565b5b8061119d57508373ffffffffffffffffffffffffffffffffffffffff1661118584610540565b73ffffffffffffffffffffffffffffffffffffffff16145b91505092915050565b8273ffffffffffffffffffffffffffffffffffffffff166111c682610982565b73ffffffffffffffffffffffffffffffffffffffff161461121c576040517f08c379a000000000000000000000000000000000000000000000000000000000815260040161121390612e26565b60405180910390fd5b600073ffffffffffffffffffffffffffffffffffffffff168273ffffffffffffffffffffffffffffffffffffffff16141561128c576040517f08c379a000000000000000000000000000000000000000000000000000000000815260040161128390612eb8565b60405180910390fd5b611297838383611a95565b6112a2600082611058565b6001600360008573ffffffffffffffffffffffffffffffffffffffff1673ffffffffffffffffffffffffffffffffffffffff16815260200190815260200160002060008282546112f29190612f07565b925050819055506001600360008473ffffffffffffffffffffffffffffffffffffffff1673ffffffffffffffffffffffffffffffffffffffff16815260200190815260200160002060008282546113499190612f3b565b92505081905550816002600083815260200190815260200160002060006101000a81548173ffffffffffffffffffffffffffffffffffffffff021916908373ffffffffffffffffffffffffffffffffffffffff160217905550808273ffffffffffffffffffffffffffffffffffffffff168473ffffffffffffffffffffffffffffffffffffffff167fddf252ad1be2c89b69c2b068fc378daa952ba7f163c4a11628f55a4df523b3ef60405160405180910390a4611408838383611a9a565b505050565b60606000821415611455576040518060400160405280600181526020017f30000000000000000000000000000000000000000000000000000000000000008152509050611569565b600082905060005b6000821461148757808061147090612f91565b915050600a826114809190612fda565b915061145d565b60008167ffffffffffffffff8111156114a3576114a2612306565b5b6040519080825280601f01601f1916602001820160405280156114d55781602001600182028036833780820191505090505b5090505b60008514611562576001826114ee9190612f07565b9150600a856114fd91906127e4565b60306115099190612f3b565b60f81b81838151811061151f5761151e612815565b5b60200101907effffffffffffffffffffffffffffffffffffffffffffffffffffffffffffff1916908160001a905350600a8561155b9190612fda565b94506114d9565b8093505050505b919050565b600081604051602001611581919061300b565b6040516020818303038152906040528051906020012060001c9050919050565b6001816000016000828254019250508190555050565b606060008251905060008114156115e0576040518060200160405280600081525091505061174a565b600060036002836115f19190612f3b565b6115fb9190612fda565b60046116079190613022565b905060006020826116189190612f3b565b67ffffffffffffffff81111561163157611630612306565b5b6040519080825280601f01601f1916602001820160405280156116635781602001600182028036833780820191505090505b50905060006040518060600160405280604081526020016133c8604091399050600181016020830160005b868110156117075760038101905062ffffff818a015116603f8160121c168401518060081b905060ff603f83600c1c1686015116810190508060081b905060ff603f8360061c1686015116810190508060081b905060ff603f831686015116810190508060e01b9050808452600484019350505061168e565b50600386066001811461172157600281146117315761173c565b613d3d60f01b600283035261173c565b603d60f81b60018303525b508484525050819450505050505b919050565b611769828260405180602001604052806000815250611a9f565b5050565b61177682611a29565b6117b5576040517f08c379a00000000000000000000000000000000000000000000000000000000081526004016117ac906130ee565b60405180910390fd5b806006600084815260200190815260200160002090805190602001906117dc929190611e8e565b505050565b8173ffffffffffffffffffffffffffffffffffffffff168373ffffffffffffffffffffffffffffffffffffffff161415611850576040517f08c379a00000000000000000000000000000000000000000000000000000000081526004016118479061315a565b60405180910390fd5b80600560008573ffffffffffffffffffffffffffffffffffffffff1673ffffffffffffffffffffffffffffffffffffffff16815260200190815260200160002060008473ffffffffffffffffffffffffffffffffffffffff1673ffffffffffffffffffffffffffffffffffffffff16815260200190815260200160002060006101000a81548160ff0219169083151502179055508173ffffffffffffffffffffffffffffffffffffffff168373ffffffffffffffffffffffffffffffffffffffff167f17307eab39ab6107e8899845ad3d59bd9653f200f220920489ca2b5937696c31836040516119419190612019565b60405180910390a3505050565b6119598484846111a6565b61196584848484611afa565b6119a4576040517f08c379a000000000000000000000000000000000000000000000000000000000815260040161199b906131ec565b60405180910390fd5b50505050565b606060405180602001604052806000815250905090565b60606119cc82611005565b60006119d66119aa565b905060008151116119f65760405180602001604052806000815250611a21565b80611a008461140d565b604051602001611a11929190612d90565b6040516020818303038152906040525b915050919050565b60008073ffffffffffffffffffffffffffffffffffffffff166002600084815260200190815260200160002060009054906101000a900473ffffffffffffffffffffffffffffffffffffffff1673ffffffffffffffffffffffffffffffffffffffff1614159050919050565b505050565b505050565b611aa98383611c91565b611ab66000848484611afa565b611af5576040517f08c379a0000000000000000000000000000000000000000000000000000000008152600401611aec906131ec565b60405180910390fd5b505050565b6000611b1b8473ffffffffffffffffffffffffffffffffffffffff16611e6b565b15611c84578373ffffffffffffffffffffffffffffffffffffffff1663150b7a02611b44611050565b8786866040518563ffffffff1660e01b8152600401611b669493929190613261565b602060405180830381600087803b158015611b8057600080fd5b505af1925050508015611bb157506040513d601f19601f82011682018060405250810190611bae91906132c2565b60015b611c34573d8060008114611be1576040519150601f19603f3d011682016040523d82523d6000602084013e611be6565b606091505b50600081511415611c2c576040517f08c379a0000000000000000000000000000000000000000000000000000000008152600401611c23906131ec565b60405180910390fd5b805181602001fd5b63150b7a0260e01b7bffffffffffffffffffffffffffffffffffffffffffffffffffffffff1916817bffffffffffffffffffffffffffffffffffffffffffffffffffffffff191614915050611c89565b600190505b949350505050565b600073ffffffffffffffffffffffffffffffffffffffff168273ffffffffffffffffffffffffffffffffffffffff161415611d01576040517f08c379a0000000000000000000000000000000000000000000000000000000008152600401611cf89061333b565b60405180910390fd5b611d0a81611a29565b15611d4a576040517f08c379a0000000000000000000000000000000000000000000000000000000008152600401611d41906133a7565b60405180910390fd5b611d5660008383611a95565b6001600360008473ffffffffffffffffffffffffffffffffffffffff1673ffffffffffffffffffffffffffffffffffffffff1681526020019081526020016000206000828254611da69190612f3b565b92505081905550816002600083815260200190815260200160002060006101000a81548173ffffffffffffffffffffffffffffffffffffffff021916908373ffffffffffffffffffffffffffffffffffffffff160217905550808273ffffffffffffffffffffffffffffffffffffffff16600073ffffffffffffffffffffffffffffffffffffffff167fddf252ad1be2c89b69c2b068fc378daa952ba7f163c4a11628f55a4df523b3ef60405160405180910390a4611e6760008383611a9a565b5050565b6000808273ffffffffffffffffffffffffffffffffffffffff163b119050919050565b828054611e9a90612523565b90600052602060002090601f016020900481019282611ebc5760008555611f03565b82601f10611ed557805160ff1916838001178555611f03565b82800160010185558215611f03579182015b82811115611f02578251825591602001919060010190611ee7565b5b509050611f109190611f14565b5090565b5b80821115611f2d576000816000905550600101611f15565b5090565b6000819050919050565b611f4481611f31565b82525050565b6000602082019050611f5f6000830184611f3b565b92915050565b6000604051905090565b600080fd5b600080fd5b60007fffffffff0000000000000000000000000000000000000000000000000000000082169050919050565b611fae81611f79565b8114611fb957600080fd5b50565b600081359050611fcb81611fa5565b92915050565b600060208284031215611fe757611fe6611f6f565b5b6000611ff584828501611fbc565b91505092915050565b60008115159050919050565b61201381611ffe565b82525050565b600060208201905061202e600083018461200a565b92915050565b600081519050919050565b600082825260208201905092915050565b60005b8381101561206e578082015181840152602081019050612053565b8381111561207d576000848401525b50505050565b6000601f19601f8301169050919050565b600061209f82612034565b6120a9818561203f565b93506120b9818560208601612050565b6120c281612083565b840191505092915050565b600060208201905081810360008301526120e78184612094565b905092915050565b6120f881611f31565b811461210357600080fd5b50565b600081359050612115816120ef565b92915050565b60006020828403121561213157612130611f6f565b5b600061213f84828501612106565b91505092915050565b600073ffffffffffffffffffffffffffffffffffffffff82169050919050565b600061217382612148565b9050919050565b61218381612168565b82525050565b600060208201905061219e600083018461217a565b92915050565b6121ad81612168565b81146121b857600080fd5b50565b6000813590506121ca816121a4565b92915050565b600080604083850312156121e7576121e6611f6f565b5b60006121f5858286016121bb565b925050602061220685828601612106565b9150509250929050565b60008060006060848603121561222957612228611f6f565b5b6000612237868287016121bb565b9350506020612248868287016121bb565b925050604061225986828701612106565b9150509250925092565b60006020828403121561227957612278611f6f565b5b6000612287848285016121bb565b91505092915050565b61229981611ffe565b81146122a457600080fd5b50565b6000813590506122b681612290565b92915050565b600080604083850312156122d3576122d2611f6f565b5b60006122e1858286016121bb565b92505060206122f2858286016122a7565b9150509250929050565b600080fd5b600080fd5b7f4e487b7100000000000000000000000000000000000000000000000000000000600052604160045260246000fd5b61233e82612083565b810181811067ffffffffffffffff8211171561235d5761235c612306565b5b80604052505050565b6000612370611f65565b905061237c8282612335565b919050565b600067ffffffffffffffff82111561239c5761239b612306565b5b6123a582612083565b9050602081019050919050565b82818337600083830152505050565b60006123d46123cf84612381565b612366565b9050828152602081018484840111156123f0576123ef612301565b5b6123fb8482856123b2565b509392505050565b600082601f830112612418576124176122fc565b5b81356124288482602086016123c1565b91505092915050565b6000806000806080858703121561244b5761244a611f6f565b5b6000612459878288016121bb565b945050602061246a878288016121bb565b935050604061247b87828801612106565b925050606085013567ffffffffffffffff81111561249c5761249b611f74565b5b6124a887828801612403565b91505092959194509250565b600080604083850312156124cb576124ca611f6f565b5b60006124d9858286016121bb565b92505060206124ea858286016121bb565b9150509250929050565b7f4e487b7100000000000000000000000000000000000000000000000000000000600052602260045260246000fd5b6000600282049050600182168061253b57607f821691505b6020821081141561254f5761254e6124f4565b5b50919050565b7f4552433732313a20617070726f76616c20746f2063757272656e74206f776e6560008201527f7200000000000000000000000000000000000000000000000000000000000000602082015250565b60006125b160218361203f565b91506125bc82612555565b604082019050919050565b600060208201905081810360008301526125e0816125a4565b9050919050565b7f4552433732313a20617070726f76652063616c6c6572206973206e6f7420746f60008201527f6b656e206f776e6572206e6f7220617070726f76656420666f7220616c6c0000602082015250565b6000612643603e8361203f565b915061264e826125e7565b604082019050919050565b6000602082019050818103600083015261267281612636565b9050919050565b7f4552433732313a2063616c6c6572206973206e6f7420746f6b656e206f776e6560008201527f72206e6f7220617070726f766564000000000000000000000000000000000000602082015250565b60006126d5602e8361203f565b91506126e082612679565b604082019050919050565b60006020820190508181036000830152612704816126c8565b9050919050565b600081905092915050565b7f46495253545f574f524400000000000000000000000000000000000000000000600082015250565b600061274c600a8361270b565b915061275782612716565b600a82019050919050565b600061276d82612034565b612777818561270b565b9350612787818560208601612050565b80840191505092915050565b600061279e8261273f565b91506127aa8284612762565b915081905092915050565b7f4e487b7100000000000000000000000000000000000000000000000000000000600052601260045260246000fd5b60006127ef82611f31565b91506127fa83611f31565b92508261280a576128096127b5565b5b828206905092915050565b7f4e487b7100000000000000000000000000000000000000000000000000000000600052603260045260246000fd5b60006128508286612762565b915061285c8285612762565b91506128688284612762565b9150819050949350505050565b60008190508160005260206000209050919050565b6000815461289781612523565b6128a1818661270b565b945060018216600081146128bc57600181146128cd57612900565b60ff19831686528186019350612900565b6128d685612875565b60005b838110156128f8578154818901526001820191506020810190506128d9565b838801955050505b50505092915050565b7f3c2f746578743e3c2f7376673e00000000000000000000000000000000000000600082015250565b600061293f600d8361270b565b915061294a82612909565b600d82019050919050565b6000612961828561288a565b915061296d8284612762565b915061297882612932565b91508190509392505050565b7f7b226e616d65223a202200000000000000000000000000000000000000000000600082015250565b60006129ba600a8361270b565b91506129c582612984565b600a82019050919050565b7f222c20226465736372697074696f6e223a20224120686967686c79206163636c60008201527f61696d656420636f6c6c656374696f6e206f6620737175617265732e222c202260208201527f696d616765223a2022646174613a696d6167652f7376672b786d6c3b6261736560408201527f36342c0000000000000000000000000000000000000000000000000000000000606082015250565b6000612a7860638361270b565b9150612a83826129d0565b606382019050919050565b7f227d000000000000000000000000000000000000000000000000000000000000600082015250565b6000612ac460028361270b565b9150612acf82612a8e565b600282019050919050565b6000612ae5826129ad565b9150612af18285612762565b9150612afc82612a6b565b9150612b088284612762565b9150612b1382612ab7565b91508190509392505050565b7f646174613a6170706c69636174696f6e2f6a736f6e3b6261736536342c000000600082015250565b6000612b55601d8361270b565b9150612b6082612b1f565b601d82019050919050565b6000612b7682612b48565b9150612b828284612762565b915081905092915050565b6000604082019050612ba2600083018561217a565b612baf6020830184611f3b565b9392505050565b7f4552433732313a20696e76616c696420746f6b656e2049440000000000000000600082015250565b6000612bec60188361203f565b9150612bf782612bb6565b602082019050919050565b60006020820190508181036000830152612c1b81612bdf565b9050919050565b7f4552433732313a2061646472657373207a65726f206973206e6f74206120766160008201527f6c6964206f776e65720000000000000000000000000000000000000000000000602082015250565b6000612c7e60298361203f565b9150612c8982612c22565b604082019050919050565b60006020820190508181036000830152612cad81612c71565b9050919050565b7f5345434f4e445f574f5244000000000000000000000000000000000000000000600082015250565b6000612cea600b8361270b565b9150612cf582612cb4565b600b82019050919050565b6000612d0b82612cdd565b9150612d178284612762565b915081905092915050565b7f54484952445f574f524400000000000000000000000000000000000000000000600082015250565b6000612d58600a8361270b565b9150612d6382612d22565b600a82019050919050565b6000612d7982612d4b565b9150612d858284612762565b915081905092915050565b6000612d9c8285612762565b9150612da88284612762565b91508190509392505050565b7f4552433732313a207472616e736665722066726f6d20696e636f72726563742060008201527f6f776e6572000000000000000000000000000000000000000000000000000000602082015250565b6000612e1060258361203f565b9150612e1b82612db4565b604082019050919050565b60006020820190508181036000830152612e3f81612e03565b9050919050565b7f4552433732313a207472616e7366657220746f20746865207a65726f2061646460008201527f7265737300000000000000000000000000000000000000000000000000000000602082015250565b6000612ea260248361203f565b9150612ead82612e46565b604082019050919050565b60006020820190508181036000830152612ed181612e95565b9050919050565b7f4e487b7100000000000000000000000000000000000000000000000000000000600052601160045260246000fd5b6000612f1282611f31565b9150612f1d83611f31565b925082821015612f3057612f2f612ed8565b5b828203905092915050565b6000612f4682611f31565b9150612f5183611f31565b9250827fffffffffffffffffffffffffffffffffffffffffffffffffffffffffffffffff03821115612f8657612f85612ed8565b5b828201905092915050565b6000612f9c82611f31565b91507fffffffffffffffffffffffffffffffffffffffffffffffffffffffffffffffff821415612fcf57612fce612ed8565b5b600182019050919050565b6000612fe582611f31565b9150612ff083611f31565b92508261300057612fff6127b5565b5b828204905092915050565b60006130178284612762565b915081905092915050565b600061302d82611f31565b915061303883611f31565b9250817fffffffffffffffffffffffffffffffffffffffffffffffffffffffffffffffff048311821515161561307157613070612ed8565b5b828202905092915050565b7f45524337323155524953746f726167653a2055524920736574206f66206e6f6e60008201527f6578697374656e7420746f6b656e000000000000000000000000000000000000602082015250565b60006130d8602e8361203f565b91506130e38261307c565b604082019050919050565b60006020820190508181036000830152613107816130cb565b9050919050565b7f4552433732313a20617070726f766520746f2063616c6c657200000000000000600082015250565b600061314460198361203f565b915061314f8261310e565b602082019050919050565b6000602082019050818103600083015261317381613137565b9050919050565b7f4552433732313a207472616e7366657220746f206e6f6e20455243373231526560008201527f63656976657220696d706c656d656e7465720000000000000000000000000000602082015250565b60006131d660328361203f565b91506131e18261317a565b604082019050919050565b60006020820190508181036000830152613205816131c9565b9050919050565b600081519050919050565b600082825260208201905092915050565b60006132338261320c565b61323d8185613217565b935061324d818560208601612050565b61325681612083565b840191505092915050565b6000608082019050613276600083018761217a565b613283602083018661217a565b6132906040830185611f3b565b81810360608301526132a28184613228565b905095945050505050565b6000815190506132bc81611fa5565b92915050565b6000602082840312156132d8576132d7611f6f565b5b60006132e6848285016132ad565b91505092915050565b7f4552433732313a206d696e7420746f20746865207a65726f2061646472657373600082015250565b600061332560208361203f565b9150613330826132ef565b602082019050919050565b6000602082019050818103600083015261335481613318565b9050919050565b7f4552433732313a20746f6b656e20616c7265616479206d696e74656400000000600082015250565b6000613391601c8361203f565b915061339c8261335b565b602082019050919050565b600060208201905081810360008301526133c081613384565b905091905056fe4142434445464748494a4b4c4d4e4f505152535455565758595a6162636465666768696a6b6c6d6e6f707172737475767778797a303132333435363738392b2fa2646970667358221220e10de44c57e03b77f56857b66452d4b0f0ce32e0aca85d9396554144903efa2f64736f6c634300080900333c73766720786d6c6e733d27687474703a2f2f7777772e77332e6f72672f323030302f73766727207072657365727665417370656374526174696f3d27784d696e594d696e206d656574272076696577426f783d273020302033353020333530273e3c7374796c653e2e62617365207b2066696c6c3a2077686974653b20666f6e742d66616d696c793a2073657269663b20666f6e742d73697a653a20323470783b207d3c2f7374796c653e3c726563742077696474683d273130302527206865696768743d2731303025272066696c6c3d27626c61636b27202f3e3c7465787420783d273530252720793d273530252720636c6173733d27626173652720646f6d696e616e742d626173656c696e653d276d6964646c652720746578742d616e63686f723d276d6964646c65273e",
  "linkReferences": {},
  "deployedLinkReferences": {}
}